:020000040800F2
:100000000050002021020008270200082B020008EF
:100010009D020008A1020008E9020008000000009B
:100020000000000000000000000000003103000894
:1000300035030008000000003903000875170008A8
:100040004D0300084D0300084D0300084D03000850
:100050004D0300084D0300084D0300084D03000840
:100060004D0300084D0300084D0300084D03000830
:100070004D0300084D0300084D0300084D03000820
:100080004D0300084D0300084D0300084D03000810
:100090004D0300084D0300084D0300084D03000800
:1000A0004D0300084D0300084D0300084D030008F0
:1000B0004D0300084D030008012E00084D03000801
:1000C0004D0300084D0300084D0300084D030008D0
:1000D0004D030008B53D00084D0300084D0300081E
:1000E0004D0300084D0300084D0300080000000008
:1000F0000000000000000000000000000000000000
:1001000000000000000000005FF808F100B583B0B7
:1001100001F05EF8304B314A1360314A1360314BC5
:10012000314A03E011681960043304322F498B42CD
:10013000F8D32A4B1A682E4B9A4200D0FEE7284B80
:100140001A682C4B9A42F9D1234B2B4A13602B4A45
:1001500013602B4B02E000221A600433294A9342B9
:10016000F9D3254B1B6813B9244B1B6803B1FEE779
:1001700001F03AF8694601A800F0BCFF224B234C7D
:10018000E41AA4100025AC4214DC214B214CE41AE3
:10019000A4100025AC4213DC0099019803F068F923
:1001A00005461D4B1D4CE41AA410002C0EDC2846FD
:1001B00000F072FF144B53F8253098470135E2E701
:1001C000134B53F8253098470135E3E7013C124BB8
:1001D00053F824309847E8E7BABADECA0000002096
:1001E0009800002000000020247400089C000020DB
:1001F0007856341232547698A0000020340B002038
:10020000A0000020380B00207803000878030008C5
:10021000780300087C0300087C0300087C030008C6
:1002200008B5FFF773FF00BEFEE71EF0040F0CBF1A
:10023000EFF30880EFF309807146414A10472DE93A
:10024000F04182B004468846124B5E6B9F6B9D6AFC
:100250001B6B13F0020F03D00E4BDB6A002B0CDB81
:100260000D4800F059FFCDF800803B463246294644
:10027000204600F0BDFF00BEFEE74BF6AB6101F08B
:1002800031F80028ECD04FF00042024BDA6202B0A5
:10029000BDE8F08100ED00E0246E000800BEFEE73E
:1002A0001EF0040F0CBFEFF30880EFF309807146D6
:1002B000244A10472DE9F04182B004468846084B95
:1002C0005E6B9F6B9D6A074800F026FFCDF80080AB
:1002D0003B4632462946204600F08AFF00BEFEE734
:1002E00000ED00E0346E00081EF0040F0CBFEFF3C9
:1002F0000880EFF309807146134A10472DE9F04159
:1003000082B004468846084B5E6B9F6B9D6A074827
:1003100000F002FFCDF800803B46324629462046D9
:1003200000F066FF00BEFEE700ED00E0406E000852
:1003300000BEFEE700BEFEE700BEFEE7704700001D
:100340003F020008B5020008FD02000800BEFEE7FB
:1003500024740008000000209C0000202474000881
:100360000000000000000000A0000020380B00206A
:0C03700000000000000000002141000817
:10038000F8B505460C46484B98421BD003F58063F0
:10039000984217D003F58063984213D003F5806329
:1003A00098420FD003F5806398420BD003F5806329
:1003B000984207D003F58063984203D0B2213B48AE
:1003C00000F0A0FEE3788BB1042B0FD0282B0DD0CA
:1003D000482B0BD0142B09D0102B07D01C2B05D089
:1003E000182B03D0B321314800F08CFE238893B141
:1003F000E37803F00F06304613F0100F06D0A37811
:10040000013BDBB2022B0BD8A0783043237833B307
:100410002E6800230BE0B421244800F073FEE7E7C8
:10042000BB21224800F06EFEEEE76A610133072B24
:1004300014D801229A40218832EA0101F6D19900AC
:100440000F278F4026EA070600FA01F10E43E178F4
:100450002829EAD04829E9D12A61E7E72E602388D4
:10046000FF2B20D96E68002302E06A6115E001339A
:10047000072B17D803F1080101228A40218832EAAC
:100480000101F4D199000F278F4026EA070600FAF0
:1004900001F10E43E1782829E7D0E1784829E6D137
:1004A0002A61E4E76E60F8BD00080140D06B0008E7
:1004B0004FF6FF730380022383700423C3707047D9
:1004C00038B504460D46144B98421CD003F58063A2
:1004D000984218D003F58063984214D003F58063E6
:1004E000984210D003F5806398420CD003F58063E6
:1004F000984208D003F58063984204D040F2691115
:10050000064800F0FFFD0DB1256138BD4FF4B5710F
:10051000024800F0F7FDF7E700080140D06B000843
:1005200010B4294B5B6803F00C03042B2BD0082B71
:100530002CD013B1254B036001E0244B036022490A
:100540004B68C3F30313224CE35CDAB20368D34075
:1005500043604A68C2F30222A25CD2B223FA02F2DA
:1005600082604A68C2F3C222A25CD2B2D340C360A6
:100570004A68C2F3813217498A5CD2B2B3FBF2F304
:10058000036110BC7047114B0360D8E70E4A5368F3
:100590005268C3F38343023312F4803F09D00A4AFE
:1005A000526812F4003F09D00B4A02FB03F30360C8
:1005B000C5E7094A02FB03F30360C0E7034A02FBF5
:1005C00003F30360BBE700BF0010024000127A0093
:1005D000080000200400002000093D0038B5044652
:1005E0000D460E4B034003B920B940F24A410C4876
:1005F00000F088FD012D04D940F24B41084800F07D
:1006000081FD2DB9074A936923EA0404946138BD3A
:10061000044B9A6914439C6138BD00BF0200C0FFBF
:10062000046C00080010024038B504460D460E4B1D
:10063000184200D120B940F269410C4800F062FD37
:10064000012D04D940F26A41084800F05BFD2DB944
:10065000074AD36923EA0404D46138BD044BDA693C
:100660001443DC6138BD00BF00360181046C000812
:10067000001002402DE9F04105460C464A4B9842D5
:100680000BD0A3F57843984207D003F580639842D6
:1006900003D0A321454800F035FD238863B1B3F5AD
:1006A000806F09D0B3F5004F06D0B3F5404F03D0AB
:1006B000A6213E4800F026FD6388B3F5827F01D075
:1006C000002B5DD1A388B3F5006F01D0002B5CD166
:1006D000E3882BB1022B03D0A921344800F012FD8E
:1006E0002389012B03D9AA21304800F00BFD63892F
:1006F000B3F5007F01D0002B4CD1A3898BB1082B1F
:100700000FD0102B0DD0182B0BD0202B09D0282B5D
:1007100007D0302B05D0382B03D0AC21234800F074
:10072000F1FCE3892BB1802B03D0AD211F4800F0F1
:10073000E9FC238A002B32D02B8803F44153B4F810
:1007400000C0B4F80280B4F804E0E7882689608924
:10075000A189E2894CEA080C4EEA0C0E47EA0E0722
:100760003E43304301430A4313432B80AB8B9BB280
:1007700023F400639BB2AB83238A2B82BDE8F08114
:10078000A7210A4800F0BEFC9CE7A821074800F01A
:10079000B9FC9DE7AB21054800F0B4FCADE7AE2104
:1007A000024800F0AFFCC7E700300140346C00089D
:1007B00038B504460D46124B98420CD0A3F5784349
:1007C000984208D003F58063984204D040F2B711F4
:1007D0000C4800F097FC012D04D94FF4DC71094856
:1007E00000F090FC35B923889BB223F040039BB204
:1007F000238038BD23889BB243F04003238038BD5B
:1008000000300140346C000838B504460D46524BA8
:10081000984242D0B0F1804F3FD0A3F59433984234
:100820003BD003F58063984237D003F5806398424C
:1008300033D003F5806398422FD003F5806398424C
:100840002BD003F59033984227D003F5C05398423C
:1008500023D003F5806398421FD003F5806398424C
:100860001BD0A3F59E33984217D003F580639842BE
:1008700013D003F5806398420FD003F5903398426C
:100880000BD003F58063984207D003F5806398424C
:1008900003D0E721314800F035FC6B885BB1102BA9
:1008A00009D0202B07D0402B05D0602B03D0E821A6
:1008B0002A4800F027FCEB884BB1B3F5807F06D0C7
:1008C000B3F5007F03D0E921244800F01BFC238806
:1008D0009BB2214A944212D002F5006294420ED09B
:1008E000B4F1804F0BD0A2F59832944207D002F5B4
:1008F0008062944203D002F58062944203D123F0D7
:1009000070036A881343164A944208D002F5806245
:10091000944204D023F440739BB2EA8813432380AB
:10092000AB88A3852B8823850B4B9C420FD003F506
:1009300000639C420BD003F540639C4207D003F553
:1009400080639C4203D003F580639C4201D12B7AE3
:1009500023860123A38238BD002C0140646C00086B
:10096000001000404FF6FF73838000230380C38094
:10097000438003727047000038B504460D462E4B85
:10098000984243D0B0F1804F40D0A3F594339842C1
:100990003CD003F58063984238D003F580639842D9
:1009A00034D003F58063984230D003F580639842D9
:1009B0002CD003F59033984228D003F5C0539842C9
:1009C00024D003F58063984220D003F580639842D9
:1009D0001CD0A3F59E33984218D003F5806398424B
:1009E00014D003F58063984210D003F590339842F9
:1009F0000CD003F58063984208D003F580639842D9
:100A000004D040F229310D4800F07CFB012D04D9BF
:100A100040F22A31094800F075FB35B923889BB2B2
:100A200023F001039BB2238038BD23889BB243F09F
:100A30000103238038BD00BF002C0140646C000816
:100A400070B504460D461646314B984243D0B0F17E
:100A5000804F40D0A3F5943398423CD003F5806397
:100A6000984238D003F58063984234D003F5806310
:100A7000984230D003F5806398422CD003F5903330
:100A8000984228D003F5C053984224D003F58063E0
:100A9000984220D003F5806398421CD0A3F59E3382
:100AA000984218D003F58063984214D003F5806310
:100AB000984210D003F5903398420CD003F5806330
:100AC000984208D003F58063984204D040F26B311D
:100AD000104800F017FB15F47F4F00D125B94FF4F3
:100AE0005B710C4800F00EFB012E04D940F26D3111
:100AF000084800F007FB2EB9A389ED43ADB21D40B5
:100B0000A58170BDA3899BB21D43A58170BD00BFA7
:100B1000002C0140646C0008F8B504460F461646E8
:100B20001D462A4B98421BD0B0F1804F18D0A3F538
:100B30009433984214D003F58063984210D003F5A3
:100B4000806398420CD003F59433984208D003F5A3
:100B50004063984204D04FF49F611D4800F0D2FAE0
:100B60007B1E9BB2022B2AD836B1022E04D040F253
:100B7000FA41174800F0C6FA35B1022D04D040F210
:100B8000FB41134800F0BEFA218989B2208B80B264
:100B9000228C92B221F00701394320F4407020F0FA
:100BA000030040F4807040F0010022F022022D0189
:100BB000ADB235432A43218120832284F8BD40F21F
:100BC000F941034800F09EFACEE700BF002C014037
:100BD000646C000830B587B004460D46654B9842FA
:100BE00013D0A3F5744398420FD003F58063984265
:100BF0000BD003F58063984207D003F580639842D9
:100C000003D0B8215C4800F07DFA2B68013B5B4AB9
:100C1000934200F29480AB8833B1B3F5805F03D088
:100C2000BA21554800F06EFAEB8863B1B3F5805FE6
:100C300009D0B3F5005F06D0B3F5405F03D0BB2108
:100C40004D4800F05FFA2B894BB1B3F5806F06D0A9
:100C5000B3F5C06F03D0BC21474800F053FA6A894E
:100C600022F00C039BB203B91AB9BD21424800F02F
:100C700049FAAB8963B1B3F5807F09D0B3F5007F42
:100C800006D0B3F5407F03D0BE213B4800F03AFACE
:100C9000AB8973B1374B9C420BD0A3F574439C4294
:100CA00007D003F580639C4203D0C221324800F094
:100CB00029FA238A9BB2EA8823F440531343238200
:100CC000A3899BB2A98828896A8901430A4323F42E
:100CD000B05323F00C031343A381A38A9BB2AA89C8
:100CE00023F440731343A38201A8FFF719FC214B9F
:100CF0009C4229D0039BA28912F4004F26D103EB1A
:100D0000830303EB830329688900B3FBF1F11C4BD8
:100D1000A3FB012358090501642300FB1313A289D7
:100D200012F4004F1BD11B013233154AA2FB0323DF
:100D3000C3F343132B439BB2238107B030BDB921CA
:100D40000D4800F0DFF966E7049BD4E703EB83036B
:100D500003EB830329684900B3FBF1F1D7E7D9001E
:100D60003231074AA2FB0131C1F3421245EA0203C4
:100D7000E1E700BF00380140946C00081FAA44005E
:100D80001F85EB514FF41653036000238380C3800B
:100D900003810C22428183817047000038B50446EC
:100DA0000D46164B984214D0A3F57443984210D0C8
:100DB00003F5806398420CD003F58063984208D015
:100DC00003F58063984204D04FF4B1710C4800F0F1
:100DD00099F9012D04D940F26311094800F092F904
:100DE00035B9A3899BB223F400539BB2A38138BDCC
:100DF000A3899BB243F40053A38138BD003801405E
:100E0000946C000870B504460D461646374B984260
:100E100014D0A3F57443984210D003F58063984230
:100E20000CD003F58063984208D003F580639842A4
:100E300004D040F289112E4800F064F9282D1ED00C
:100E400040F227739D421AD040F226639D4216D08D
:100E500040F225539D4212D040F224439D420ED0D1
:100E600040F646039D420AD040F66A139D4206D0E2
:100E7000602D04D04FF4C5711D4800F043F9012ED8
:100E800004D940F28B111A4800F03CF940F66A137D
:100E90009D4211D0C5F3421205F01F05012303FA4C
:100EA00005F59A4219D0022A19D01434CEB9236814
:100EB00023EA0505256070BD0C4B9C42EAD0A3F5E2
:100EC00074439C42E6D003F580639C42E2D040F23A
:100ED0008F11074800F016F9DCE70C34E6E7103410
:100EE000E4E723681D43256070BD00BF0038014062
:100EF000946C000838B505460C463C4B984214D01B
:100F0000A3F57443984210D003F5806398420CD047
:100F100003F58063984208D003F58063984204D0BB
:100F200040F2D931324800F0EDF8282C25D040F2BB
:100F300027739C4221D040F226639C421DD040F290
:100F400025539C4219D040F224439C4215D040F6D0
:100F500046039C4211D040F66A139C420DD0B4F572
:100F6000587F0AD0B4F5187F07D0B4F5B07F04D00D
:100F700040F2DA311E4800F0C5F840F66A139C4290
:100F800017D0C4F3421204F01F0101238B40012A41
:100F900020D0022A22D0AA8A92B21340240A012227
:100FA00002FA04F42A8892B21440DBB1E4B90020BA
:100FB00038BD0E4B9D42E4D0A3F574439D42E0D072
:100FC00003F580639D42DCD040F2DE31084800F03A
:100FD00099F8D6E7AA8992B21340DFE72A8A92B23B
:100FE0001340DBE7002038BD012038BD0038014048
:100FF000946C000838B505460C46254B984214D031
:10100000A3F57443984210D003F5806398420CD046
:1010100003F58063984208D003F58063984204D0BA
:1010200040F222411B4800F06DF840F226639C42DA
:1010300010D040F225539C420CD040F646039C420F
:1010400008D040F66A139C4204D040F22341114874
:1010500000F058F840F66A139C4207D0240A012396
:10106000A3409BB2DB439BB22B8038BD084B9D4213
:10107000F4D0A3F574439D42F0D003F580639D4204
:10108000ECD040F22741034800F03CF8E6E700BF0F
:1010900000380140946C0008FEE7000008B50348E2
:1010A00000F052F80120FFF7F7FF00BFC86C0008FE
:1010B00008B503460C4A12685AB10B4A106803334C
:1010C00023F003030344094A934206D8064A1360F7
:1010D00008BD0749044A1160EFE705F019F90C2330
:1010E00003604FF0FF3008BDA4000020004C00203A
:1010F000380B002001230360014B0B60704700BFD9
:101100001800002008B50A460146024800F004F81D
:10111000FFF7C4FFDC6C00080FB400B583B004AB6C
:1011200053F8042B01938021064805F001FA0028AA
:1011300003DD0146034800F047F803B05DF804EB17
:1011400004B07047AC00002010B5044605F0BCF9AF
:101150000146204600F038F80121024800F034F83A
:1011600010BD00BFA06D00082DE9F04385B0044616
:101170000F4643560BB10E461EE004252846214675
:10118000ABBE0446384605B0BDE8F08314F9011B38
:1011900004AA1A4402F8101C0133AB42F6D304AA85
:1011A0001344002203F8102CE9464FF0040840468F
:1011B0004946ABBE8046761B002EE3D03546102E46
:1011C00028BF10250023E8E708B5FFF7CDFF08BDCD
:1011D00008B500F0FDF8024B024A9A6008BD00BF56
:1011E00000ED00E00000000808B500F019F908BDA6
:1011F000F8B504460D4617461E462748FFF78CFFF4
:1012000021682648FFF788FF61682548FFF784FFBB
:10121000A1682448FFF780FFE1682348FFF77CFFBF
:1012200021692248FFF778FF61692148FFF774FFC1
:10123000A1692048FFF770FFE1691F48FFF76CFFC5
:101240001E48FFF769FF29461D48FFF765FF1D4C43
:10125000E16A1D48FFF760FF216B1C48FFF75CFF48
:10126000E16B1B48FFF758FF15F0800F0AD115F40A
:10127000004F0CD11748FFF74FFF06991648FFF7AC
:101280004BFFF8BD39461548FFF746FFEFE73146FB
:101290001348FFF741FFEDE7086D0008186D0008DF
:1012A000286D0008386D0008486D0008586D00086A
:1012B000686D0008786D0008886D0008986D00085A
:1012C000A46D000800ED00E0B46D0008C46D0008D6
:1012D000D46D0008046E00080C6E0008E46D000870
:1012E000F46D000883691A888A4201D00020704793
:1012F0000268033A012A03D8023383610120704750
:101300000020704782B00023019300932C4A136899
:1013100043F4803313602A4B1B6803F400330093BB
:10132000019B01330193009B1BB9019BB3F5A06F97
:10133000F1D1234B1B6813F4003F06D00123009327
:10134000009B012B04D002B0704700230093F7E705
:101350001C4B1A6842F010021A601A6822F003024D
:101360001A601A6842F002021A60A3F580535A68A4
:101370005A605A685A605A6842F480625A605A68E1
:1013800022F47C125A605A6842F4E8125A601A68D1
:1013900042F080721A600A4B1B6813F0007FFAD08B
:1013A000074B5A6822F003025A605A6842F0020260
:1013B0005A60034B5B6803F00C03082BF9D1C2E7BA
:1013C000001002400020024008B5FFF79BFF08BD57
:1013D00008B5104B1A6842F001021A6059680E4AAB
:1013E0000A405A601A6822F0847222F480321A602D
:1013F0001A6822F480221A605A6822F4FE025A60A7
:101400004FF41F029A60FFF7DFFF4FF00062034BBB
:101410009A6008BD001002400000FFF800ED00E0F7
:101420001F4B5B6803F00C03042B15D0082B17D05F
:101430001BB11C4A1C4B1A6002E01A4A1A4B1A6074
:10144000174B5B68C3F30313184AD35CDAB216492F
:101450000B68D3400B607047124A134B1A60EFE7DA
:101460000F4A53685268C3F38343023312F4803F38
:101470000AD00B4A526812F4003F0BD00C4A02FB10
:1014800003F3094A1360DBE7094A02FB03F3064A48
:101490001360D5E7034A02FB03F3034A1360CFE767
:1014A0000010024000127A003000002020000020CE
:1014B00000093D0030B40C68630A074AA2FB03230D
:1014C000DA09064D05FB1242046804EBD3130360EE
:1014D0000A6030BC704700BF834B040000CA9A3BCF
:1014E00000B583B001211020FFF778F84FF40053C6
:1014F000ADF8043010238DF8073003238DF8063043
:1015000001A90348FEF73CFF03B05DF804FB00BFF0
:101510000010014070B584B001210720FFF784F866
:1015200001210520FFF75AF8C323ADF80C304823FA
:101530008DF80F3003268DF80E6003A92648FEF7BC
:101540001FFF6846FFF70EFA0024ADF80040ADF823
:1015500002404FF6FF73ADF80430ADF806408DF849
:10156000084069464FF08040FFF74EF91B4D694631
:101570002846FFF749F92346224631464FF080407E
:10158000FFF7CAFA2346224631462846FFF7C4FA37
:1015900001214FF08040FFF7EFF901212846FFF7C6
:1015A000EBF94723ADF8003041F28733ADF8043052
:1015B0004FF40073ADF80630094C69462046FFF73A
:1015C00023F9012211462046FFF73AFA012120466D
:1015D000FFF7D2F904B070BD0008014000040040DC
:1015E0000008004030B587B001210920FEF7F6FF62
:1015F00001214FF48040FFF717F805A8FEF758FFC8
:1016000003238DF8163004238DF817304FF48043F0
:10161000ADF81430214C05A92046FEF7B1FE182381
:101620008DF817304FF42043ADF8143005A920464B
:10163000FEF7A6FE10238DF817304FF48055ADF855
:10164000145005A92046FEF79BFE29462046FEF7CA
:1016500037FF0023ADF800304FF48272ADF802205E
:10166000ADF80430ADF80630ADF808304FF4007234
:10167000ADF80A202822ADF80C20ADF80E30072373
:10168000ADF81030A4F5544469462046FEF7F2FF49
:1016900001212046FFF78CF807B030BD000C014057
:1016A00010B40160426083600023C36010BC7047C7
:1016B00003681A8912F0020FFAD089B2998103687F
:1016C0001A8912F0010FFAD09889C0B2704730B56C
:1016D00083B00446154600238DF8073042688368BE
:1016E0001B041361FFF7E4FF29462046FFF7E0FFE4
:1016F0008DF807006368A2681A619DF8070003B0BF
:1017000030BD30B583B0044615460023ADF8063031
:10171000426883681B041361FFF7CAFF290A204649
:10172000FFF7C6FF80B2000280B2ADF80600E9B252
:101730002046FFF7BDFF80B2BDF806309BB21843CC
:10174000ADF806006368A2681A61BDF8060080B2B1
:1017500003B030BD064BD3E9002380185941044B38
:10176000D3E90023994208BF9042F8D1704700BFE7
:10177000300100200449D1E90023013243F1000384
:10178000C1E90023704700BF3001002003790B70CE
:1017900043794B7083798B70C379CB70037A0B716B
:1017A000437A4B71837A8B71C37ACB71082070476F
:1017B0000B7843604A7843EA022343608A7843EA1D
:1017C00002434360CA7843EA026343600B79836053
:1017D0004A7943EA022383608A7943EA02438360B9
:1017E000CA7943EA02638360082070470048704763
:1017F00094710008004870477071000870B40B784D
:1018000083804A7843EA0223838000242346032B03
:1018100006D8CA189278DD00AA4014430133F6E7CF
:101820000623A21D934204D25A1ECD5C8D5401336F
:10183000F7E7053400230B554C1D84601E46032B2F
:1018400006D88C18E45CDD00AC4026430133F6E793
:10185000141D2346A219934204D25A1ECD5C8D5406
:101860000133F7E7551E00234B55013C0C44C4607F
:101870001E46032B06D88C18E45CDD00AC402643E2
:101880000133F6E7043213469419A34204D25C1ED6
:10189000CD5C0D550133F7E7631E0025CD54013AA9
:1018A0000A4402610B5D621C8A5C43EA0223A21CAB
:1018B0008A5C43EA0243E21C8A5C43EA02634361B6
:1018C000201D70BC7047000000487047F070000891
:1018D00000487047CC70000870B406460B7803715E
:1018E00000221346032B07D8581C0C5CDB0004FABB
:1018F00003F31A430346F5E70523501D834204D240
:101900005C1ECD5C0D550133F7E7043200238B5488
:101910000431B16070BC704700487047B87000086F
:101920000048704794700008004870470C71000828
:10193000004870477070000803790B7043794B7052
:1019400083798B70C379CB70042070470B78436028
:101950004A7843EA022343608A7843EA02434360B9
:10196000CA7843EA02634360042070470048704726
:10197000FC71000800487047D871000870B4064632
:101980000B7843604A7843EA022343608A7843EA4B
:1019900002434360CA7843EA026343600B79836081
:1019A0004A7943EA022383608A7943EA02438360E7
:1019B000CA7943EA026383600B7AC3604A7A43EAD6
:1019C0000223C3608A7A43EA0243C360CA7A43EAC5
:1019D0000263C36000221346032B06D8C818047B99
:1019E000D800844022430133F6E7102302F11000AF
:1019F000834204D25C1ECD5C0D550133F6E70F32F5
:101A000000238B540F31316170BC70470048704720
:101A1000C871000800487047A471000810B48268BB
:101A2000C3680A70C2F307244C70C2F307448C7079
:101A3000120ECA700B71C3F307224A71C3F3074237
:101A40008A711B0ECB71026943690A72C2F30724C3
:101A50004C72C2F307448C72120ECA720B73C3F33A
:101A600007224A73C3F307428A731B0ECB73826942
:101A7000C3690A74C2F307204874C2F3074088742C
:101A8000120ECA740B75C3F307224A75C3F30742DB
:101A90008A751B0ECB75182010BC70472DE9F0031A
:101AA0000A7800234E780025340222432B438E7897
:101AB0000025340422432B43CE78350A34062243D2
:101AC0002B4300240D7922432B4391F805804FEAE4
:101AD000082722433B4391F806804FEA08472243F8
:101AE0003B4391F807804FEA086722433B43C0E934
:101AF00002230E7A002791F8098000234FEA08227A
:101B000016431F4391F80A8000234FEA0842164308
:101B10001F4391F80B804FEA18234FEA08621643DF
:101B20001F430B7B26431F4391F80D804FEA082388
:101B300026431F4391F80E804FEA084326431F4374
:101B400091F80F804FEA0863224632433B43C0E9D5
:101B500004230E7C002791F8118000234FEA08220D
:101B600016431F4391F8128000234FEA08421643A0
:101B70001F4391F813804FEA18234FEA0862164377
:101B80001F430B7D26431F4391F815804FEA08231E
:101B900026431F4391F816804FEA084326431F430C
:101BA00091F817804FEA0863224632433B43C0E96D
:101BB00006231820BDE8F003704700000048704776
:101BC0005C700008004870473870000810B48268E4
:101BD000C3680A70C2F307244C70C2F307448C70C8
:101BE000120ECA700B71C3F307224A71C3F3074286
:101BF0008A711B0ECB71026943690A72C2F3072412
:101C00004C72C2F307448C72120ECA720B73C3F388
:101C100007224A73C3F307428A731B0ECB73826990
:101C2000C3690A74C2F307244C74C2F307448C746A
:101C3000120ECA740B75C3F307224A75C3F3074229
:101C40008A751B0ECB75026A436A0A76C2F30720B7
:101C50004876C2F307408876120ECA760B77C3F334
:101C600007224A77C3F307428A771B0ECB772020DF
:101C700010BC70472DE9F0030C7800254E78002346
:101C8000320214431D438E780023320414431D4353
:101C9000CE78330A320614431D4300220B791443D5
:101CA0001D4391F805804FEA082714433D4391F8FE
:101CB00006804FEA084714433D4391F807804FEAF6
:101CC000086714433D43C0E902450E7A002791F8A6
:101CD000098000254FEA082426432F4391F80A8003
:101CE00000254FEA084426432F4391F80B804FEA22
:101CF00018254FEA086426432F430D7B16432F43D4
:101D000091F80D804FEA082516432F4391F80E8075
:101D10004FEA084516432F4391F80F804FEA0865B4
:101D2000144634433D43C0E904450E7C002791F836
:101D3000118000254FEA082426432F4391F8128092
:101D400000254FEA084426432F4391F813804FEAB9
:101D500018254FEA086426432F430D7D16432F4371
:101D600091F815804FEA082516432F4391F8168005
:101D70004FEA084516432F4391F817804FEA08654C
:101D8000144634433D43C0E906450E7E002791F8D2
:101D9000198000254FEA082426432F4391F81A8022
:101DA00000254FEA084426432F4391F81B804FEA51
:101DB00018254FEA086426432F430D7F16432F430F
:101DC00091F81D804FEA082516432F4391F81E8095
:101DD0004FEA084516432F4391F81F804FEA0865E4
:101DE000144634433D43C0E908452020BDE8F003D4
:101DF0007047000000487047A46F00080048704713
:101E0000806F000800487047247000080048704741
:101E10000070000800487047E46F000800487047F1
:101E2000C06F000890F8F4087047F8B506460C46F5
:101E300003790B7083881B0A4B70806804F044FBA5
:101E400007460023032B06D8991CDA0027FA02F272
:101E500062540133F6E73A46B168A01D04F066FA11
:101E60000637F06804F030FB05460023032B06D844
:101E7000F918DA0025FA02F262540133F6E7043762
:101E80002A46F168E01904F051FA3D44306904F043
:101E90001BFB07460023032B06D8E918DA0027FAB4
:101EA00002F262540133F6E704353A4631696019AB
:101EB00004F03CFA3D44736963556A1CC3F307217F
:101EC000A154AA1CC3F30741A154EA1C1B0EA3543E
:101ED000281DF8BD70B506460D4603790B70806865
:101EE00004F0F2FA04460023032B06D85A1CDB0048
:101EF00024FA03F3AB541346F6E72246B168681D93
:101F000004F014FA601D70BD2DE9F84306460D4635
:101F100003790B7043794B7083798B70C379CB70E5
:101F20000022042473689A4211D2F36853F82230D5
:101F30002B55611CC3F307206854A11CC3F3074051
:101F40006854E11C1B0E6B5404340132EAE7337C05
:101F50002B55631C727CEA54A31CB27CEA54E31C2C
:101F6000F27CEA540434002233699A4211D2B369F4
:101F700053F822302B55611CC3F307206854A11C71
:101F8000C3F307406854E11C1B0E6B540434013248
:101F9000EAE7337F2B55631C727FEA54A31CB27FA0
:101FA000EA54E31CF27FEA5404344FF000080AE0DC
:101FB0000434736A3A4653F80910281904F0B6F944
:101FC0003C4408F10108F369984512D2736A4FEA5C
:101FD000880953F8280004F077FA074620460023C2
:101FE000032BE5D8C118DA0027FA02F26A5401334C
:101FF000F6E72046BDE8F88370B505460C46037940
:102000000B7043794B7083798B70C379CB70037AF3
:102010000B71437A4B71837A8B71C37ACB71037BDB
:102020000B72437B4B72837B8B72C37BCB720069D9
:1020300004F04AFA06460023032B07D803F10C01EB
:10204000DA0026FA02F262540133F5E732462969D2
:1020500004F1100004F06AF906F1100070BD2DE9DA
:10206000F04105460C460E784B7846EA03268B78FD
:1020700046EA0346CB7846EA036643689E421ED88A
:102080006E60002704266B689F421ED2A35D721CFF
:10209000A25C43EA0223B21CA25C43EA0243F21CA4
:1020A000A25C43EA0263AB600436E868042205F1EF
:1020B000080100EB870004F039F90137E3E7B100CC
:1020C000C06804F0E9F9E860DAE7A75D731CE35C37
:1020D00047EA0327B31CE35C47EA0347F31CE35CCE
:1020E00047EA036704362B699F421DD82F610027FA
:1020F0002B699F421ED2A35D721CA25C43EA02239D
:10210000B21CA25C43EA0243F21CA25C43EA0263F3
:102110006B610436A869042205F1140100EB870005
:1021200004F004F90137E3E7B900A86904F0B4F951
:10213000A861DBE714F80680731CE35C48EA032817
:10214000B31CE35C48EA0348F31CE35C48EA036819
:10215000371DEB69984503D8C5F81C80002624E09C
:102160004FEA8801686A04F097F96862F4E707F1BA
:10217000040E73460EEB0200834204D2591EE75C44
:1021800067540133F6E7431E0022E2540EF1FF3E8E
:1021900004EB0E032B620746686A042205F1200156
:1021A00000EB860004F0C2F80136EB699E420CD2C7
:1021B000BE4600221346032BD9D804EB0E01C95C9E
:1021C000D80081400A430133F5E73846BDE8F08185
:1021D00030B587B0012144F20500FEF7FFF905A8EC
:1021E000FEF766F918238DF817304FF40073ADF839
:1021F000143003258DF816501C4C05A92046FEF717
:10220000BFF848238DF817304FF48063ADF81430D1
:102210008DF8165005A92046FEF7B2F801A8FEF782
:10222000B1FD4FF4614301930023ADF810300C224F
:10223000ADF80E20ADF80C30ADF80A30ADF808302E
:1022400004F5405401A92046FEF7C4FC01212046B4
:10225000FEF7A4FD012240F225512046FEF7D2FDF3
:102260002022034B5A6007B030BD00BF0008014078
:1022700000E100E030B4026943690A70C2F3072547
:102280004D70C2F307458D70120ECA700B71C3F307
:1022900007224A71C3F307428A711B0ECB71826910
:1022A000C3690A72C2F307254D72C2F307458D72E6
:1022B000120ECA720B73C3F307224A73C3F30742A9
:1022C0008A731B0ECB73026A436A0A74C2F3072433
:1022D0004C74C2F307448C74120ECA740B75C3F3AA
:1022E00007224A75C3F307428A751B0ECB7501F1AD
:1022F0001803046B426B0C76C4F307215970C4F3C6
:1023000007419970240EDC701A71C2F307215971CC
:10231000C2F307419971120EDA71816BC26B1972A7
:10232000C1F307245C72C1F307449C72090ED97291
:102330001A73C2F307215973C2F307419973120E3E
:10234000DA73016C426C1974C1F307245C74C1F335
:1023500007449C74090ED9741A75C2F30721597584
:10236000C2F307419975120EDA75816CC26C197649
:10237000C1F307205876C1F307409876090ED97645
:102380001A77C2F307215977C2F307419977120EE2
:10239000DA77382030BC7047F8B507460C46051D83
:1023A0002B790B706B794B70AB798B70EB79CB70B1
:1023B0002B7A0B716B7A4B71AB7A8B71EB7ACB7199
:1023C0002B7B0B726B7B4B72AB7B8B72EB7BCB7281
:1023D000286904F079F806460023032B07D803F197
:1023E0000C01DA0026FA02F262540133F5E73246B4
:1023F000296904F1100003F099FF06F11005621934
:10240000B96AFB6A6155C1F307245470C1F30744EC
:102410009470090ED1701371C3F307215171C3F386
:10242000074191711B0ED371396B7B6B1172C1F334
:1024300007245472C1F307449472090ED1721373C6
:10244000C3F307215173C3F3074191731B0ED37379
:10245000B96BFB6B1174C1F307205074C1F30740D3
:102460009074090ED1741375C3F307215175C3F32A
:10247000074191751B0ED37502F11803BC6CF96C02
:102480001476C4F307225A70C4F307429A70240EDC
:10249000DC701971C1F307225A71C1F307429A71B6
:1024A000090ED971396D7A6D1972C1F307245C7206
:1024B000C1F307449C72090ED9721A73C2F3072143
:1024C0005973C2F307419973120EDA73B96DFA6D3D
:1024D0001974C1F307245C74C1F307449C74090E9A
:1024E000D9741A75C2F307215975C2F3074199755A
:1024F000120EDA75396E7A6E1976C1F307205876A6
:10250000C1F307409876090ED9761A77C2F30721EE
:102510005977C2F307419977120EDA7706F148002E
:10252000F8BD2DE9F04F8646051D0B786B604A78A3
:1025300043EA02236B608A7843EA02436B60CA78FD
:1025400043EA02636B600B79AB604A7943EA02238A
:10255000AB608A7943EA0243AB60CA7943EA02631B
:10256000AB600B7AEB604A7A43EA0223EB608A7A2B
:1025700043EA0243EB60CA7A43EA0263EB6000225B
:102580001346032B06D8C818007BDC00A04002438A
:102590000133F6E7102302F11000984204D9581EC7
:1025A000CC5C0C540133F6E70F3200238B5401F15D
:1025B0000F022A610A1811F800A04FF0000B92F8E0
:1025C000018000254FEA08244AEA040A4BEA050B79
:1025D00092F8028000254FEA08444AEA040A4BEACE
:1025E000050B92F803804FEA18254FEA086444EA85
:1025F0000A0445EA0B0592F804B043EA040A4BEAE0
:10260000050B92F805804FEA08254AEA030A4BEACF
:10261000050B92F806804FEA08454AEA030A4BEA9E
:10262000050B92F807804FEA086543EA0A0445EA79
:102630000B05CEE90A4592F808A04FF0000B92F87E
:10264000098000254FEA08244AEA040A4BEA050BF0
:1026500092F80A8000254FEA08444AEA040A4BEA45
:10266000050B92F80B804FEA18254FEA086444EAFC
:102670000A0445EA0B0592F80CB043EA040A4BEA57
:10268000050B92F80D804FEA08254AEA030A4BEA47
:10269000050B92F80E804FEA08454AEA030A4BEA16
:1026A000050B92F80F804FEA086543EA0A0445EAF1
:1026B0000B05CEE90C4592F810A04FF0000B92F8F4
:1026C000118000254FEA08244AEA040A4BEA050B68
:1026D00092F8128000254FEA08444AEA040A4BEABD
:1026E000050B92F813804FEA18254FEA086444EA74
:1026F0000A0445EA0B0592F814B043EA040A4BEACF
:10270000050B92F815804FEA08254AEA030A4BEABE
:10271000050B92F816804FEA08454AEA030A4BEA8D
:10272000050B92F817804FEA086543EA0A0445EA68
:102730000B05CEE90E4502F11801167E002791F82F
:10274000018000254FEA082446EA040847EA050903
:102750008E780025340448EA040849EA0509CE7851
:10276000350A340648EA040849EA050991F804B034
:1027700048EA030849EA0B094E79350248EA03089A
:1027800049EA05098E79350448EA030849EA05094A
:10279000CE79350643EA080445EA0905CEE9124533
:1027A00091F808804FF000094E7A0025340248EA7B
:1027B000040849EA05098E7A0025340448EA040829
:1027C00049EA0509CE7A350A340648EA040849EA96
:1027D00005090F7B48EA030849EA07094E7B3502E1
:1027E00048EA030849EA05098E7B350448EA0308EC
:1027F00049EA0509CE7B350643EA080445EA09059E
:10280000CEE9144591F810804FF000094E7C002568
:10281000340248EA040849EA05098E7C002534049C
:1028200048EA040849EA0509CE7C350A340648EA34
:10283000040849EA05090F7D48EA030849EA07093F
:102840004E7D350248EA030849EA05098E7D3504C4
:1028500048EA030849EA0509CE7D350643EA08043B
:1028600045EA0905CEE9164591F818804FF00009B0
:102870004E7E0025340248EA040849EA05098E7EA6
:102880000025340448EA040849EA0509CE7E350AE1
:10289000340648EA040849EA05090F7F48EA0308B4
:1028A00049EA07094E7F350248EA030849EA050963
:1028B0008E7F350443EA080445EA0905CE7F4FEAD6
:1028C00006691C4345EA0905CEE918450EF1400E9C
:1028D0003830BDE8F08F2DE9F04300F1080E0C7898
:1028E00000254E780023320214431D438E780023C6
:1028F000320414431D43CE78330A320614431D4379
:1029000000220B7914431D4391F805804FEA0827F4
:1029100044EA020845EA07098E79350448EA0208C4
:1029200049EA0509CE79350642EA080445EA09056F
:10293000C0E9044591F808804FF000094E7A00255F
:10294000340248EA040849EA05098E7A002534046D
:1029500048EA040849EA0509CE7A350A340648EA05
:10296000040849EA05090F7B48EA020849EA070911
:102970004E7B350248EA020849EA05098E7B350498
:1029800048EA020849EA0509CE7B350642EA08040E
:1029900045EA0905C0E9064591F810804FF00009A5
:1029A0004E7C0025340248EA040849EA05098E7C79
:1029B0000025340448EA040849EA0509CE7C350AB2
:1029C000340648EA040849EA05090F7D48EA020886
:1029D00049EA07094E7D350248EA020849EA050935
:1029E0008E7D350448EA020849EA0509CE7D3506A0
:1029F00042EA080445EA0905C0E9084501F118035F
:102A00000E7E002793F8018000254FEA0824344306
:102A10003D4393F8028000274FEA084634433D4384
:102A200093F803804FEA18274FEA086634433D4382
:102A30001F7914433D4393F805804FEA0827144358
:102A40003D4393F806804FEA084714433D4393F80B
:102A500007804FEA086714433D43C0E90C451E7ADE
:102A6000002793F8098000254FEA082426432F43C6
:102A700093F80A8000254FEA084426432F4393F831
:102A80000B804FEA18254FEA086426432F431D7B2D
:102A900016432F4393F80D804FEA0825144634431C
:102AA0003D4393F80E804FEA084714433D4393F8A3
:102AB0000F804FEA086714433D43C0E90E451E7C72
:102AC000002793F8118000254FEA082426432F435E
:102AD00093F8128000254FEA084426432F4393F8C9
:102AE00013804FEA18254FEA086426432F431D7DC3
:102AF00016432F4393F815804FEA082514463443B4
:102B00003D4393F816804FEA084714433D4393F83A
:102B100017804FEA086714433D43C0E910451E7E05
:102B2000002793F8198000254FEA082426432F43F5
:102B300093F81A8000254FEA084426432F4393F860
:102B40001B804FEA18254FEA086426432F431D7F58
:102B500016432F4393F81D804FEA082516432F4351
:102B600093F81E804FEA0845144634433D4393F8DA
:102B70001F804FEA086714433D43C0E912453820DF
:102B8000BDE8F08338B5102001F0D1FA04464FF4C7
:102B90008053254A2549FEF783FD254B1C60002202
:102BA000F5212046FEF793FD712801D0002038BDA5
:102BB0001F4C03226B212068FEF789FD03221A2196
:102BC0002068FEF784FD042219212068FEF77FFDAE
:102BD00010221B212068FEF77AFD4FF4FA700021C5
:102BE000FEF7B8FD00240025092C13DC0022C721C4
:102BF0000F4B1868FEF785FD00B203F0BFF90146E0
:102C0000284603F007F9054605200021FEF7A2FD3E
:102C10000134E9E70749284603F004FA03F052FBC0
:102C2000054B1860012038BD000C01400038004001
:102C300040010020381F4340380100200000000000
:102C40002DE9F04383B04FF080418B8C1BB2ADF87F
:102C500006303B4A938C1BB2ADF8043000238B84C2
:102C60009384384B186802F0B9FD31A3D3E90023EF
:102C700002F056FC06460F4601F074FA04460D4673
:102C80003046394601F0B6FA06460F46BDF8060052
:102C900000B202F091FD22462B4602F0F3FD804681
:102CA0008946BDF8040000B202F086FD32463B467C
:102CB00002F0E8FD02460B464046494602F02EFC73
:102CC0001DA3D3E9002302F0DDFDDFF88080D8E901
:102CD000002302F025FCC8E90001BDF8060000B29F
:102CE00002F06AFD32463B4602F0CCFD06460F4636
:102CF000BDF8040000B202F05FFD22462B4602F050
:102D0000C1FD02460B463046394602F009FC0AA3D3
:102D1000D3E9002302F0B6FD0B4CD4E9002302F006
:102D2000FFFBC4E9000103B0BDE8F083AFF300800E
:102D3000182D4454FB21E93F366D4886DCB4383FFA
:102D400000040040200B0020180B0020100B002076
:102D500038B50022C721224B1868FEF7D2FC00B21A
:102D60004FF47A7303FB00F003F008F91D4903F0F8
:102D70000DFA4FF07C5103F04DF803F0A3FA04462E
:102D8000194B1868231A03F16402C82A18D803F0F3
:102D9000F5F8164903F046F90546204603F0EEF82B
:102DA000134903F03FF90146284603F033F84FF08A
:102DB0007C5103F02FF803F085FA0B4B186038BDF7
:102DC000184603F0DBF80B4903F02CF90A4903F02D
:102DD000DDF90A4C216803F01DF8206038BD00BF02
:102DE000400100203333034238010020A4707D3FAE
:102DF0000AD7233CA968923700004843200B0020E3
:102E00000C4B1B8A13F0010F00D1704710B50A4C10
:102E10004FF000532361FFF713FFFFF799FF4FF4C3
:102E200000532361034A138A9BB223F001039BB230
:102E3000138210BD000800400010014083884288C2
:102E40009B1A01D498B2704702881344FAE738B548
:102E500004460D46FFF7F2FF2388013B98420BDA48
:102E6000A268A388D554A38801331BB2B4F9062005
:102E70001340A380012038BD00206080A08038BDB1
:102E8000024681684388C85C01331BB2B2F9061060
:102E90000B405380704700002DE9F04F89B0044685
:102EA0009D4BD3E900894646D0F8FC38A8EB0303D4
:102EB00042F6F822934202D9002380F8F438D4F87D
:102EC000E03813B3D4F8003943451ED20023C4F8C8
:102ED000E0381AE0002320E03846FFF7D1FF05462E
:102EE00001231DE04FF0FF311DE0D4F8EC385A1CEF
:102EF000C4F8EC2823441976D4F8E438013BC4F82C
:102F0000E43813B90823C4F8E03863689F6838468A
:102F1000FFF794FF0028DDD10123002BDCD0002334
:102F2000002BDFD029460029C0F27182D4F8F028A6
:102F30000A44C4F8F028D4F8E038072BD5D0BBB940
:102F4000FF290DD0744BD3E90023921B41F2883343
:102F50009A42DAD9002384F8F4386FF0010077E25E
:102F60000133C4F8E03806F11403C4F80039CCE7A3
:102F7000012B34D0022B4FD0032B58D0042B60D020
:102F8000052B6DD0062B73D0082BBED10023C4F8BF
:102F9000E0389B1AD2B2DBB258BF5A42FF2AB4D1F2
:102FA000D4F8E878002F75D00A2F00F0F180062FB2
:102FB00000F032810B2F00F0268207F5DD7304EB61
:102FC000830358680028A0D007F5DD7304EB830362
:102FD0005B681B681B6804F11801984795E7FE2998
:102FE00016D00023C4F8E03894F8F438002B8CD1C4
:102FF0004A4B029300230393049323681B6802AA9D
:103000000A2120469847444BD3E90023E2607CE73D
:103010000133C4F8E03878E7C4F8E4180022C4F8B3
:10302000EC280133C4F8E038C4F8F0186DE7D4F8A0
:10303000E42802EB0121C4F8E4180133C4F8E038B5
:1030400063E75142D2B2C9B258BF4A42FF2A03D005
:103050000023C4F8E03858E70133C4F8E03854E7F7
:10306000C4F8E8180133C4F8E038C4F8F0184CE7A5
:10307000D4F8E83803EB0121C4F8E8180723C4F8B2
:10308000E038D4F8E438002B7FF43FAF0823C4F8CD
:10309000E0383AE7214B0293002503950495236815
:1030A0001B6802AA0A21204698471B4BD3E900233C
:1030B000E2601B4B0293ADF80C501A4B049305933E
:1030C000069307953D4600E00135182D2DDC05F2ED
:1030D000062354F82330002BF6D09A68ADF80C2064
:1030E0001A680492586803689B689847059005F22F
:1030F000062654F8263058680368DB68984706901F
:103100004FF48063079323681B6854F8261002AAC3
:10311000096920469847D7E730010020586E00081B
:10312000706E0008246D00080137182F26DC07F2A6
:103130001E2304EB830358680028F5D04368ADF8DC
:103140000C308368049303689B689847059007F2E6
:103150001E2504EB850568680368DB6898470690C0
:103160004FF48063079323681E68686803685B6890
:10317000984702AA01462046B047D5E7012384F8C4
:10318000F438C4F8F888C4F8FC884FF0FF305FE1E9
:10319000B14FD7E90001E368C01A237E617E43EA9C
:1031A0000123A17E43EA0143E17E43EA016394F8EF
:1031B0001CE0617F4EEA012EA17F4EEA014EE27FC4
:1031C0004EEA026EA54AA2FB00C189090B44039393
:1031D0004FF47A7A0AFB1101DFF88CC20CFB01EE86
:1031E000CDF810E0D7E90001A2FB00B292099B1ACA
:1031F000013B23610AFB12030CFB13E3984A1A44B8
:10320000626104F1140104F11000FEF753F9D7E9EB
:103210000023C4F8FC2878E604F6081A04F118071D
:1032200094F818B07B784BEA032BBB784BEA034B3E
:10323000FB784BEA036BDAF804309B452DD8CAF8CB
:1032400004B0002300934FF0040BDAF80430009A26
:1032500093422BD917F80B300BF10102BA5C43EA09
:1032600002230BF10202BA5C43EA02430BF10302B0
:10327000BA5C43EA0263CAF808300BF1040BDAF8CF
:103280000C0004220AF10801009B00EB830003F00C
:103290004DF8009B01330093D7E74FEA8B01DAF832
:1032A0000C0003F0F9F8CAF80C00C8E717F80B3067
:1032B0000BF10102BA5C43EA02230BF10202BA5C91
:1032C00043EA02430BF10302BA5C43EA02631A4683
:1032D00000930BF1040BDAF810309A422CD8009BC3
:1032E000CAF8103000230093DAF81030009A9342A5
:1032F0002AD917F80B300BF10102BA5C43EA02231A
:103300000BF10202BA5C43EA02430BF10302BA5C1E
:1033100043EA0263CAF814300BF1040BDAF8180020
:1033200004220AF11401009B00EB830002F0FEFF6F
:10333000009B01330093D7E79100DAF8180003F0FF
:10334000ABF8CAF81800CAE717F80B300BF1010206
:10335000BA5C43EA02230BF10202BA5C43EA02437D
:103360000BF10302BA5C43EA02631A4601930BF1C4
:1033700004030093DAF81C309A4205D8019BCAF87E
:103380001C304FF0000B28E09100DAF8240003F025
:1033900083F8CAF82400F1E7009B03F1040E73469A
:1033A00001EB0E029A4204D95A1EF85CB85401335C
:1033B000F6E7531E0021F9540EF1FF333B44CAF8DF
:1033C00020300092DAF8240004220AF1200100EBF8
:1033D0008B0002F0ABFF0BF1010BDAF81C305B4500
:1033E0000DD9DDF800E000210B46032BD4D807EB04
:1033F0000E02D25CD800824011430133F5E701236D
:1034000084F8043981E5002384F8F4387DE594F8E4
:10341000F438E3B1D4F8F838A8EB030340F6C4124B
:10342000934201D8002013E00E4B02930025039530
:10343000049523681B6802AA0A2120469847064B78
:10344000D3E90023E260C4F8F888284600E00020B1
:1034500009B0BDE8F08F00BF30010020D34D6210ED
:1034600000CA9A3B586E000840420F00000000005E
:103470002DE9804891B0934B1B68934AA2FB03232C
:103480009B09013BB3F1807F09D2904A5360F02140
:103490008F4B83F823100023936007231360FEF7FC
:1034A0001FF84FF000528B4B1A61FEF733F8FEF70E
:1034B00099F8894A0023C2F8E038C2F8E438C2F823
:1034C000EC38C2F8E838182B0EDC03F206228249E9
:1034D00051F82220002A44D103F206207F4A41F805
:1034E00020207D339360D1600023182B0EDC03F283
:1034F0000622794951F82220002A34D103F206200D
:10350000774A41F820207D339360D160002000216C
:10351000744BC3E90E01744BD3E900016A4BA3FB62
:1035200000239B096C490A691A440C924FF47A7281
:1035300002FB13034A696D4901FB03230D930DA997
:103540000CA8FDF7B7FFFFF71DFB4FF08042684B5B
:103550001A604FF0005203F1C04303F53C531A6167
:1035600083E30133AFE70133BFE75E4D05F10C03A1
:103570000AAE96E8030083E803005E4BD3E900231C
:10358000C5E90A235C4BD3E90023C5E90C234FF0BE
:1035900000084FF00009C5E90E89584B6B61584B84
:1035A000186802F01BF9CDE90289CDE904890022EF
:1035B000544B02F067F98046894600F01BFECDE9C6
:1035C00006014046494600F0CDFDCDE90801DDE9A0
:1035D0000223C5E91223DDE90423C5E91423DDE94B
:1035E0000623C5E91623C5E918013C4BD8680268D3
:1035F00017682A469968B847434B1B685868FFF715
:103600001DFC424A5060364BD86801680D689968C5
:10361000A8470CAB96E8030083E8030078E3002397
:1036200022E02046FFF72CFC834601231FE04FF0E9
:10363000FF311FE0284BD3F8EC28501CC3F8EC08EE
:103640001A441176D3F8E428013AC3F8E42812B9F1
:103650000822C3F8E028204B5B689C682046FFF7EF
:10366000EDFB0028DBD10123002BDAD00023002B57
:10367000DDD059460029C0F2EB82174BD3F8F02871
:103680000A44C3F8F028D3F8E038072BD2D0002B37
:103690003ED1FF290CD0144BD3E90023521B41F239
:1036A00088339A42D7D900220B4B83F8F428DCE206
:1036B000094A0133C2F8E03805F11403C2F80039B1
:1036C000C9E700BF30000020D34D621010E000E0D9
:1036D00000ED00E00010014044010020E00A00205D
:1036E000FC0A0020780A00203001002040420F0030
:1036F00000E100E0100B0020180B00200C72000805
:10370000200B00200000E03F3C010020F40A0020D4
:10371000012B41D0022B62D0032B6CD0042B75D02F
:10372000052B00F08480062B00F08A80082B92D1B4
:103730000021B74BC3F8E0188B1AD2B2DBB258BFE6
:103740005A42FF2A87D1B24BD3F8E888B8F1000F6C
:1037500000F08A80B8F10A0F00F00A81B8F1060F74
:1037600000F06681B8F10B0F00F06D82A8F16402E1
:1037700008F5DD78A64B03EB8803586800283FF472
:103780006AAFA34902F21E2301EB83035B681B6847
:103790001B68183198475EE7FE291BD09C4B00221E
:1037A000C3F8E02893F8F438002B7FF454AF994B1A
:1037B000009301920292DFF85882D8F800301B681B
:1037C0006A460A2140469847934BD3E90023C8F83C
:1037D0000C2040E701338E4AC2F8E0383BE78C4AC0
:1037E000C2F8E4180020C2F8EC080133C2F8E0384F
:1037F000C2F8F0182FE7864AD2F8E40800EB01215E
:10380000C2F8E4180133C2F8E03824E75142D2B2DA
:10381000C9B258BF4A42FF2A04D000227C4BC3F8E9
:10382000E02818E701337A4AC2F8E03813E7784A0B
:10383000C2F8E8180133C2F8E038C2F8F0180AE715
:10384000734BD3F8E82802EB0121C3F8E8180722EC
:10385000C3F8E028D3F8E438002B7FF4FCAE08224C
:103860006B4BC3F8E028F6E66A4B00930D460191D6
:103870000291DFF89C91D9F800301B686A460A2152
:1038800048469847644BD3E90023C9F80C20634BA2
:103890000093ADF80450624B029303930493059593
:1038A000454600E00135182D2ADC05F20623584A6A
:1038B00052F82330002BF5D09A68ADF804201A682E
:1038C0000292586803689B6898470390DFF840911C
:1038D00005F2062A59F82A3058680368DB689847C9
:1038E00004904FF480630593D9F800301B6859F8B1
:1038F0002A106A46096948469847D3E708F1010843
:10390000B8F1180F2BDC08F21E22414B03EB8203A7
:1039100058680028F2D04368ADF8043083680293F9
:1039200003689B6898470390DFF8E49008F21E252F
:1039300009EB850568680368DB68984704904FF4D5
:1039400080630593D9F80030D3F800A06868036855
:103950005B6898476A4601464846D047CEE72C4BFD
:10396000012283F8F428C3F8F868C3F8FC687CE106
:10397000DFF8A490D9E90001DFF89480D8F80C3082
:10398000C01A98F8183098F8192043EA022398F8DA
:103990001A2043EA024398F81B2043EA026398F88E
:1039A0001CE098F81D204EEA022E98F81E204EEAE0
:1039B000024E98F81F204EEA026E1A4AA2FB0041FE
:1039C00089090B4401934FF47A7A0AFB1101DFF85D
:1039D0005CC00CFB01EECDF808E0D9E90001A2FBC8
:1039E000004292099B1A013BC8F810300AFB1203EF
:1039F0000CFB13E30C4A1A44414641F8142F08F11A
:103A00001000FDF757FDD9E90023C8F8FC2822E68D
:103A100044010020586E000830010020706E00083C
:103A2000246D0008D34D621000CA9A3B40420F003B
:103A3000CD4B93F818805A7E48EA02289A7E48EACD
:103A40000248DA7E48EA0268D3F80C3998452FD844
:103A5000C54BC3F80C894FF000084FF00409C24B66
:103A6000D3F80C3943452ED9BF4901F1180212F899
:103A7000093009F10100105C43EA002309F102005A
:103A8000105C43EA004309F10300125C43EA02635D
:103A9000C1F8103909F10409D1F81409042201F51B
:103AA000116100EB880002F041FC08F10108D6E743
:103AB000DFF8B4924FEA8801D9F8140902F0ECFC5F
:103AC000C9F81409C4E7A84A02F1180313F80980D9
:103AD00009F10101595C48EA012809F10201595C28
:103AE00048EA014809F103015B5C48EA036809F10F
:103AF0000409D2F8183998452DD89B4BC3F818897A
:103B00004FF00008984BD3F8183943452DD9964902
:103B100001F1180212F8093009F10100105C43EAC2
:103B2000002309F10200105C43EA004309F103009D
:103B3000125C43EA0263C1F81C3909F10409D1F8A7
:103B40002009042201F61C1100EB880002F0EEFBB4
:103B500008F10108D6E792464FEA8801D2F8200919
:103B600002F09AFCCAF82009C7E77F4A02F118035D
:103B700013F8098009F10101595C48EA012809F1AB
:103B80000201595C48EA014809F103015B5C48EA1B
:103B9000036809F10409D2F82439984505D8724B15
:103BA000C3F824894FF0000833E092464FEA8801B9
:103BB000D2F82C0902F070FCCAF82C09EFE709F1E1
:103BC00004094B4601EB09029A4209D9664A02F1FF
:103BD000180E581E1A44127E0EF800200133F1E729
:103BE000614901F11803501E4FF0000E03F800E088
:103BF00009F1FF394B44C1F828399146D1F82C0915
:103C0000042201F6281100EB880002F08FFB08F176
:103C10000108554BD3F8243943450FD948460021B4
:103C20000A46032ACBD8504B034413441B7E4FEA69
:103C3000C20E03FA0EF319430132F2E701224A4B96
:103C400083F8042907E50022474B83F8F42802E5AE
:103C5000454B93F8F43843B1434BD3F8F838F31A93
:103C600040F6C412934200F28780404BD3E9000132
:103C70003F4BA3FB00239B093B490A691A440E9260
:103C80004FF47A7202FB13034A693A4901FB03239A
:103C90000F930EAD0FA92846FDF70CFC0AAB95E873
:103CA000030083E8030001F077FD06460F460B98FA
:103CB00001F072FD28A3D3E9002301F0E3FD0246E1
:103CC0000B463046394601F02BFC06460F460C9851
:103CD00001F062FD804689460D9801F05DFD1EA34E
:103CE000D3E9002301F0CEFD02460B46404649468B
:103CF00001F016FC02460B463046394601F00EFC38
:103D000017A3D3E9002302F04DF800287FF42DAC6F
:103D1000164BD3E900673546134BD3F8FC38F31A3A
:103D200042F6F822934203D900220F4B83F8F4287D
:103D30000D4BD3F8E038002B3FF48DAC0A4BD3F891
:103D400000399E427FF687AC0022074BC3F8E0287B
:103D500081E400BFAFF3008095D626E80B2E113E1C
:103D60009A9999999999A93F44010020300100201E
:103D7000D34D621040420F00094B00930023019382
:103D80000293084D2B681B686A460A21284698470B
:103D9000054BD3E90023EA60C5F8F86865E700BF82
:103DA000586E0008440100203001002000234380A9
:103DB0008380704770B5204B1C6864B1206850B197
:103DC00040F22771FDF796F830B940F2255120688E
:103DD000FDF790F8C8B970BD66683046FFF72EF859
:103DE00068B9226893899BB223F080039BB29381C8
:103DF0000023002BE9D02368ADB29D80E5E7304673
:103E0000FFF73EF805460123F3E723689988C9B216
:103E1000A068FFF71CF828B140F225512068FDF793
:103E2000E9F8D8E70548FDF78FF9A068FFF7BEFF6E
:103E300001232373F0E700BF3C010020546F00080A
:103E40002DE9F04385B0632903DD90F8F438002BA9
:103E500076D00F46814613681B6800F21F4110465A
:103E6000984786B2FF2389F81834FE2389F819345D
:103E7000C3B289F81A343546C0F3072089F81B0409
:103E80000344DBB2DB4389F81C3489F81D7447F323
:103E9000072789F81E7405230022E91D8B4206DAE4
:103EA00009EB030191F818140A440133F5E7F11DF9
:103EB00089B206F108039BB25042D2B2C0B258BFD9
:103EC0004242D243494481F818249846B3F5806FA2
:103ED00025DC09F1040609F58369002706E022685C
:103EE00093899BB243F0800393810137B84529DD64
:103EF000346860680588FEF7A1FF8542F8D019F89C
:103F000007106068FEF7A3FF0028E8D10F48FDF70F
:103F10001BF96068FFF74AFF01232373DFE70C4BAF
:103F2000019303238DF808300A4B0393D9F800302E
:103F30001B6801AA0721484698474FF0FF3801E067
:103F40004FF00008404605B0BDE8F0832871000836
:103F5000886E000834710008013880B20022002306
:103F600030B192185B41013243F100034008F7E79A
:103F700090B2013080B2704710B504460846FFF792
:103F8000EBFF208000F0E4F8A06000236380A380B2
:103F90002388013BE380204610BD0000012800D0AB
:103FA00070474FF6FF739942FAD170B5102000F0B8
:103FB000BEF806460024446084600473464B0360E8
:103FC0000C2000F0B4F805464FF48061FFF7D4FFF1
:103FD00075600C2000F0ABF805464FF40071FFF758
:103FE000CBFFB5603D4B1E603D4D3E4B2B604FF40B
:103FF0006143AB6000BF6E60FEF7EAF885F8F448F5
:10400000394BC5F80839C5F80C49C5F81449C5F845
:104010001849C5F82049C5F82449C5F82C49234654
:10402000182B07D803F2062100202D4A42F8210060
:104030000133F5E70023182B08D803F21E21284A84
:1040400002EB8102002151600133F4E70023B3F554
:10405000806F05D2224A1A44002111760133F6E717
:104060000023B3F5806F06D21D4A1A44002182F85E
:1040700018140133F5E71D4B1D4A1A601D4A5A609A
:1040800000229A60DA601A611B4959611B499961E3
:104090001B49196200200021C3E90A01C3E90C0190
:1040A000C3E90E01174C1C64C3E91201C3E91401F2
:1040B000C3E91601C3E918011349144808604A60AE
:1040C0001348144C046043600261134B134818609A
:1040D00059601A6170BD00BF003801403C010020EA
:1040E00044010020486F0008A06E0008780A0020F4
:1040F000306F0008D06E0008246D0008186F0008AB
:10410000E86E0008006F0008F40A0020B86E00088E
:10411000E00A0020606F0008FC0A0020746F0008AD
:1041200008B54FF6FF710120FFF738FF08BD10B545
:10413000002814BF04460124204602F0EFF830B9ED
:1041400000F008F808B9FCF7A9FF8047F4E710BDB4
:10415000FFF7EDBF024B1868BFF35B8F704700BFDE
:10416000240B002030B5214A21F00043934287B050
:104170001BDD1F4A934205DD02460B4601F0CEF9D6
:1041800007B030BD02AA00F07FF800F0030001285C
:104190001AD002280FD008B3DDE90423DDE90201BB
:1041A0000124009400F0F4FFEAE70022002300F06D
:1041B00083FA07B030BDDDE90423DDE9020100F038
:1041C0007BFA01F10041DBE70090DDE90423DDE942
:1041D000020100F0DDFF01F10041D1E7DDE9042338
:1041E000DDE9020100F068FACAE700BFFB21E93F00
:1041F000FFFFEF7F30B5214A21F00043934287B0A3
:104200001BDD1F4A934205DD02460B4601F086F98D
:1042100007B030BD02AA00F037F800F00300012813
:104220001ED0022811D0DDE9042300B3DDE902012C
:1042300000F042FA01F10041EAE7002400220023E5
:10424000009400F0A5FF07B030BD0124DDE9042390
:10425000DDE90201009400F09BFF01F10041D7E786
:10426000DDE90423DDE9020100F026FAD0E70124AC
:10427000DDE90201009400F08BFFC9E7FB21E93F73
:10428000FFFFEF7F000000002DE9F04F984C21F078
:104290000047A7428FB040F38A801446954A0D46E6
:1042A000974226DC88A3D3E90023002940F3A881A4
:1042B00001F034F9904B80469F42894600F08C8093
:1042C00083A3D3E9002301F029F902460B464046B7
:1042D000C4E90023494601F021F97DA3D3E9002375
:1042E00001F01CF90126C4E9020130460FB0BDE817
:1042F000F08F824A974240F38C80814A974261DC7A
:104300004FEA275AAAF2164AA7EB0A518946804675
:1043100001F052FD01F050FA06460F4632463B4688
:1043200040464946CDE9086701F0F8F80022754B90
:1043300001F0A8FA8946804601F03EFD01F03CFA02
:1043400006460F4632463B4640464946CDE90A6797
:1043500001F0E4F800226B4B01F094FA00220023F4
:10436000CDE90C0101F0F6FC002800F06781002384
:1043700030463946002201F0EDFC002814BF01232D
:1043800002230220604952468DE80300214608A816
:1043900000F0B6FA002D064610DA6268E36802F112
:1043A000004203F1004346426260E36006E00024FD
:1043B00000250026C2E90245C2E9000130460FB0DF
:1043C000BDE8F08F02460B4601F0A8F80026C4E9CC
:1043D0000201C4E90001F1E73FA3D3E9002301F0A2
:1043E0009DF83FA3D3E9002306460F4601F096F857
:1043F00002460B463046C4E90023394601F08EF8E8
:1044000037A3D3E9002301F089F80126C4E90201AA
:10441000D4E700F073FF34A3D3E900238046894634
:1044200001F030FA0022394B01F07AF801F0C4FCB7
:10443000064601F0C1F924A3D3E90023CDE9040124
:1044400001F020FA02460B464046494601F066F864
:104450001FA3D3E9002382468B46DDE9040101F066
:1044600011FA1F2ECDE9020154DC294B721E53F8BC
:1044700022309F424ED002460B465046594601F02C
:104480004DF802460B4681468846C4E900234A4659
:1044900043465046594601F041F8DDE9022301F058
:1044A0003DF802460B46002DC4E9022386DA4A464F
:1044B00008F1004301F1004184E80C00E160A060D4
:1044C00076427BE7AFF3008000004054FB21F93FC8
:1044D0003163621A61B4D03D0000601A61B4D03D0E
:1044E0007370032E8A19A33B83C8C96D305FE43F04
:1044F000FB21E93F7BD90240FB21F93FFB213941F8
:10450000FFFFEF7F00007041947200080000E03F61
:1045100014720008DDE902235046594600F0FEFF00
:104520003F15C1F30A53FB1A102B81468846C4E994
:104530000001ACDD54A3D3E90023DDE9040101F05F
:10454000A1F98046894602460B465046594600F07E
:10455000E5FFCDE9060102460B465046594600F0FC
:10456000DDFF42464B4600F0D9FF49A3D3E90023C3
:1045700080468946DDE9040101F084F942464B4654
:1045800000F0CCFF02460B46CDE90201DDE9060151
:1045900000F0C4FF0B4602468846C1F30A517F1A59
:1045A000312F8146C4E9002368DD3BA3D3E9002312
:1045B000DDE9040101F066F98046894602460B46B2
:1045C000DDE9060100F0AAFF02460B4682468B4653
:1045D000DDE9060100F0A2FF42464B4600F09EFFD7
:1045E0002FA3D3E9002380468946DDE9040101F0C9
:1045F00049F942464B4600F091FFCDE902013AE706
:1046000000F08EFF2A4B80469F42894618D026A391
:10461000D3E9002300F084FF02460B464046C4E97C
:104620000023494600F07AFF1FA3D3E9002300F0DE
:1046300077FF4FF0FF36C4E90201BFE60323A0E68F
:1046400011A3D3E9002300F06BFF11A3D3E90023EA
:1046500006460F4600F064FF02460B463046C4E9AA
:104660000023394600F05AFF09A3D3E9002300F0E4
:1046700057FF4FF0FF36C4E902019FE6DDE906ABC4
:1046800005E700BFAFF300800000601A61B4D03DC1
:104690007370032E8A19A33B0000002E8A19A33BD6
:1046A000C14920259A837B393163621A61B4D03DB8
:1046B000FB21F93F000000002DE9F04F21F00046FA
:1046C000B6F1795F85B00C4692469B4605466BDA9B
:1046D00001F072FB002800F0E7802A4623462846B6
:1046E000214601F0CFF874A3D3E900238046894620
:1046F00001F0C8F872A3D3E9002300F011FF42468D
:104700004B4601F0BFF870A3D3E9002300F006FF89
:1047100042464B4601F0B6F86DA3D3E9002300F002
:10472000FFFE42464B4601F0ADF86BA3D3E90023F0
:1047300000F0F4FE42464B4601F0A4F868A3D3E92A
:10474000002300F0EDFE42464B4601F09BF8CDE918
:1047500000010022644B4046494601F093F8DDE930
:10476000002306460F464046494601F08BF8524664
:10477000804689465B462846214601F083F802467A
:104780000B464046494600F0C9FE02460B463046FD
:10479000394600F0C3FE02460B460020534900F0A4
:1047A000BDFE05B0BDE8F08F02460B4601F06AF889
:1047B00041A3D3E900238046894601F063F840A372
:1047C000D3E9002300F0ACFE42464B4601F05AF814
:1047D0003DA3D3E9002300F0A1FE42464B4601F081
:1047E00051F83BA3D3E9002300F09AFE42464B4622
:1047F00001F048F838A3D3E9002300F08FFE4246C9
:104800004B4601F03FF836A3D3E9002300F088FEC1
:104810004B46424601F036F8354BCDE900019E4249
:1048200097DD344B00229E4238DCA6F500130020B1
:104830002E4916461F4600F071FECDE90201002206
:10484000294B4046494601F01DF832463B4600F0F0
:1048500065FEDDE9002306460F464046494601F065
:1048600011F85246804689465B462846214601F0AB
:1048700009F802460B464046494600F04FFE024604
:104880000B463046394600F049FE02460B46DDE94C
:10489000020100F043FE05B0BDE8F08F164B002684
:1048A000CDE90223154FCAE70020104905B0BDE845
:1048B000F08F00BFAFF30080D43888BEE9FAA8BDFE
:1048C000C4B1B4BD9EEE213EAD529C804F7E923E5F
:1048D0009015CB19A001FA3E7751C1166CC1563F15
:1048E0004C5555555555A53F0000E03F0000F03FA1
:1048F0003233D33F0000E93F0000E73F0000D23FE2
:104900002DE9F04F1F46ADF5197D9B4C0893D31E42
:1049100084FB0354DB17C3EBA403A29E974C23EA4A
:10492000E37554F826406B1CA3EB8303264602EB89
:10493000C30305947C1E04932346099502942C1B03
:10494000F518039006911AD425444FF000084FF053
:10495000000901351EAEA39F08E057F8240000F0BF
:104960002BFF0134AC42E6E9020108D0002CF4DA56
:10497000404649460134AC42E6E90201F6D1059BC6
:10498000002B2EDB089B70AA4FEAC309039BA9F1F9
:104990000808984420AB9944059B0DF5DC7A02EB9E
:1049A000C30B029B002BC0F20C834D460026002750
:1049B000039BA3F1080475E90223F4E9020100F066
:1049C00061FF02460B463046394600F0A9FD4445DA
:1049D00006460F46EFD1EAE90267DA4509F1080910
:1049E000DFD1059B0CA8009303F18043013B9B00A2
:1049F000089A191F034402F100520B93039B013ADA
:104A000001440A9103EBC20B009A98A901EBC2037F
:104A1000002A53E9284513462BDD01EBC308A8F112
:104A2000A8080DF12C090DF5DC7A0022544B204624
:104A3000294600F027FF01F0BFF900F0BDFE00227B
:104A4000504B06460F4600F01DFF02460B4620461F
:104A5000294600F063FD01F0AFF978E8022349F838
:104A6000040F3946304600F05BFDD04504460D4644
:104A7000DBD1DDF81090204629464A4600F0D0FCF4
:104A800000224FF07F5304460D4600F0FBFE00F07D
:104A90003BFC00223C4B00F0F5FE02460B46204654
:104AA000294600F03BFD0D46044601F085F980469D
:104AB00000F082FE0B4602462946204600F02EFDFD
:104AC0004B46002B06460F4640F3F580009AC9F18D
:104AD0001803511E0CAA52F821500CA845FA03F2F3
:104AE00002FA03F3ED1AC9F1170340F8215090447C
:104AF0001D41002D62DD009B08F10108002B40F3F1
:104B00007F820C9C002C00F01883012000230CAA4B
:104B1000C4F1807442F82340009A824219DD6FF09C
:104B20007F410CAA52F820200CAC8A1A44F82020AD
:104B3000009A02339A420CDD0CAA02EB8303009A1E
:104B40000CA800EB82001A688A1A43F8042B8342EF
:104B5000F9D1049B002B19DD049B0124012B40F0AB
:104B60005782009B0CA95A1E0CAB53F82230C3F39A
:104B7000160341F8223057E2ABAAAA2AE0730008D4
:104B80000000703E0000704100002040022D15D151
:104B900032463B460020984900F0C0FC06460F46CE
:104BA000049A0020944900F03BFC02460B46304634
:104BB000394600F0B3FC022506460F4600220023CA
:104BC0003046394601F0C6F8002800F051820099BD
:104BD000059B481E83420FDC002201F18043013B0C
:104BE0000CA90B9C01EB830353F80419A34242EA7E
:104BF0000102F9D1002A6FD1059B0CAA013B52F8A2
:104C00002330002B40F0328201230A9A52F8041913
:104C100001330029FAD0009AD31802F1010A9A450B
:104C200007933DDC009B0899099A0B449946079924
:104C30000AEB020820AB08F1804803EBC9098B1886
:104C4000A39A08F1FF3802EB880870AA02EBCA0A9F
:104C5000A39A02EB8303009358F8040F00F0ACFD15
:104C6000029BE9E80201002B1DDB4D4600260027D0
:104C7000039BA3F1080475E90223F4E9020100F0A3
:104C800001FE02460B463046394600F049FC5C45C1
:104C900006460F46EFD1009BEAE802679845DBD154
:104CA000079B0093B0E600260027009BEAE8026716
:104CB0009845D1D1F4E706D1009B0CAA013B52F8EC
:104CC0002350ED1515E700224C4B01F061F8002848
:104CD00040F08181054671E70CA951F82030049914
:104CE00002951839CDF81C800246009004916BB9EA
:104CF00000F18043013B0CA800EB830353F8040947
:104D0000013A18390028F9D000920491049A002041
:104D1000394900F085FB009B0446002B0D46C0F28C
:104D200004824FF00008DA0070A901EB020B049234
:104D30000CAA02EB8306DFF8C8900BF108070436D3
:104D400056F8040D00F038FD22462B4600F09AFD7F
:104D50004B4667E9020142462046294600F092FD93
:104D60000CAB9E4204460D46EAD14FF000090DF50A
:104D7000907ACDF80CA0DDF814A0BAF1000FC0F2C3
:104D80003C811BA1D1E90001DFF878805D46002657
:104D90000027002403E04C4510DCF8E80201F5E8A8
:104DA000022300F06FFD02460B463046394600F004
:104DB000B7FB0134A24506460F46ECDA039BABF184
:104DC000080B03EBC903C3E900676EAB5B4509F150
:104DD0000109D2D1A29BDDF80CA0032B00F28D803B
:104DE000DFE813F0D000920092001200AFF30080D1
:104DF00000000040FB21F93F0000F03F0000E03FD1
:104E00000000703EA8730008009B002B40F3A381B4
:104E1000049BD34653449846D3E9006758E9029A65
:104E200032463B464846514600F07AFB04460D4662
:104E300002460B464846514600F070FB32463B4660
:104E400000F06EFBC8E9000168E90245C34526464B
:104E50002F46E3D1009BDA46012B40F37C81049B73
:104E60005B449846D3E9006799460DF5947B59E970
:104E700002341846214632463B46CDE9000100F097
:104E80004FFB04460D4602460B46DDE9000100F0EB
:104E900045FB32463B4600F043FBC9E9000169E9A6
:104EA0000245CB4526462F46E1D100231D4608F199
:104EB00008084CAC184678E90223294600F030FB7C
:104EC000444503460D46F5D1029A002A00F01F81A1
:104ED000DAF80440DAF80C20069FDAF80010DAF865
:104EE000080005F1004504F1004402F100427D6133
:104EF0003B617C60FA603960B860079B03F0070093
:104F00000DF5197DBDE8F08F00242146049D08357C
:104F1000554475E90223204600F002FB554504463E
:104F2000F7D1029B002B00F0DB80069F01F10045CA
:104F30000B46DAE9000187E83000224600F0EEFA7D
:104F4000009B0646002B0D460EDD0124FAE90223E4
:104F50003046294600F0E4FA009B0134A34206469D
:104F60000D46F3DA029B0BB105F1004532462B46A4
:104F70000699C1E90223079B03F007000DF5197D8F
:104F8000BDE8F08F00231C46049D083555441846A3
:104F900075E90223214600F0C3FAAA4503460C46F0
:104FA000F5D1029A0AB104F1004418462146069B45
:104FB000C3E90001079B03F007000DF5197DBDE86B
:104FC000F08F00260027EAE90267DA4509F10809AF
:104FD0007FF4E7AC05E5009B08F10108002BC8BF92
:104FE00002253FF78EAD32463B460020644900F073
:104FF00095FA022506460F46E0E500260027DDE685
:10500000049B002B26DD0024049B012B3FF4A9AD5B
:10501000022B09D1009B0CA95A1E0CAB53F822306D
:10502000C3F3150341F82230022D7FF4C7AD324699
:105030003B460020524900F071FA06460F46002C0C
:105040003FF4BCADACE50099013399427AD1049BA1
:10505000002BD9DC022D7FF4B1AD32463B46002057
:10506000474900F05BFA06460F46A7E50123D2E563
:105070003946049F30467A420295CDF81C8000F0F4
:10508000CFF900223F4B04460D4600F081FE002878
:1050900064D000223C4B2046294600F0F3FB00F090
:1050A0008BFE064600F088FB0022364B00F0EAFB40
:1050B00002460B462046294600F030FA00F07CFEFE
:1050C00000990B4601331A4600933B46183304936C
:1050D0000B460CA941F82300134641F8236015E65E
:1050E00026460F462246069C0B46DAE90001C4E933
:1050F000006700F013FA009B0646002B0D463FF7B1
:1051000024AF32462B460699C1E9022333E71846FD
:10511000DAE90067DAE902232946069DC5E9006756
:10512000C5E90401C5E90223E7E6A29B032B3FF68C
:10513000E4AEDFE803F0211C1C0E009B012B86DD92
:1051400001230CAA52F8044F002C3FF47CAF581CEA
:10515000DDE40DF5907A00231D46B5E6204629468C
:1051600000F02AFE009B0CAA42F82300CEE50024A2
:105170000DF5907A2146D4E600231C4611E700BFC6
:105180000000F03F000070410000703E0000000091
:105190002DE9F04F21F00046B6F1795F85B00C465D
:1051A00090469946054604DA00F006FE002800F015
:1051B00085802A4623462846214600F063FB0646A2
:1051C0000F4602460B462846214600F05BFB3EA3F5
:1051D000D3E9002382468B463046394600F052FB25
:1051E0003BA3D3E9002300F099F932463B4600F097
:1051F00049FB39A3D3E9002300F092F932463B463C
:1052000000F040FB36A3D3E9002300F087F93246D3
:105210003B4600F037FB34A3D3E9002300F080F9CC
:105220000E9BCDE900019BB30022334B404649461B
:1052300000F028FBDDE90023CDE902015046594684
:1052400000F020FB02460B46DDE9020100F066F9A2
:1052500032463B4600F016FB42464B4600F05EF9F4
:1052600023A3D3E9002306460F465046594600F0D3
:1052700009FB02460B463046394600F051F902461A
:105280000B462846214600F049F905B0BDE8F08FED
:1052900002460B463046394600F0F4FA14A3D3E92F
:1052A000002300F03BF952465B4600F0EBFA2A4639
:1052B000234600F035F905B0BDE8F08F28462146B9
:1052C00005B0BDE8F08F00BF7CD5CF5A3AD9E53D97
:1052D000EB9C2B8AE6E55A3E7DFEB157E31DC73EA7
:1052E000D561C119A0012A3FA6F810111111813F03
:1052F000495555555555C53F0000E03F21F0004147
:10530000704700BF00000000C1F30A522DE9F843C6
:10531000A2F2FF36132E0B4604460D46884607467A
:105320001DDC002E40DB3C4A864642FA06F901EAC3
:105330000902024318D036A3D3E9002300F0F0F8A5
:105340000022002300F02EFD20B1002D42DB0027BB
:1053500028EA09053C4629462046BDE8F883332E55
:1053600006DDB6F5806F2FD019462046BDE8F883DC
:105370004FF0FF39A2F2134229FA02F910EA090F9D
:10538000F2D023A3D3E9002300F0CAF800220023BF
:1053900000F008FD0028DDD0002D21DB454627EA7E
:1053A00009073C462946D7E719A3D3E9002300F0B3
:1053B000B7F80022002300F0F5FC0028CAD0002D29
:1053C00019DB00273D46C5E702460B4600F0A8F86A
:1053D0000446CAE74FF4801343FA06F6B044B6E732
:1053E000142E10D00123C6F1340603FA06F637193D
:1053F00028BF9844D2E725F00042084B224318BF4B
:105400001D460027A6E705F10108C7E7AFF30080B6
:105410009C7500883CE4377EFFFF0F000000F0BF62
:10542000F8B5C1F30A5604460D460B4617460EBBA7
:1054300021F000430343864625D000222E4B00F086
:1054400021FA2E4A044697420D460B462ADBC1F349
:105450000A56363E40F2FE723E44964228DC002E4A
:1054600012DD23F0FF4323F4E00343EA0655204610
:105470002946F8BD40F2FF729642EBD102460B4638
:1054800000F04EF8F8BDF8BD16F1350F1DDA4CF2FC
:1054900050339F420CDC14A1D1E9000122462B4677
:1054A00000F030F810A3D3E9002300F0EBF9F8BDC9
:1054B00022460FA1D1E900012B4600F023F80CA3EE
:1054C000D3E9002300F0DEF9F8BD23F0FF4323F415
:1054D000E003363643EA0655204629460022084BAB
:1054E00000F0D0F9F8BD00BF59F3F8C21F6EA50156
:1054F0009C7500883CE4377E00005043B03CFFFFC1
:105500000000903C03F0004321F0004242EA030116
:10551000704700BF81F0004102E000BF83F000430C
:1055200030B54FEA41044FEA430594EA050F08BF3E
:1055300090EA020F1FBF54EA000C55EA020C7FEA02
:10554000645C7FEA655C00F0E2804FEA5454D4EB7F
:105550005555B8BF6D420CDD2C4480EA020281EA49
:10556000030382EA000083EA010180EA020281EA81
:105570000303362D88BF30BD11F0004F4FEA0131D3
:105580004FF4801C4CEA113102D0404261EB4101E2
:1055900013F0004F4FEA03334CEA133302D0524268
:1055A00063EB430394EA050F00F0A780A4F1010424
:1055B000D5F1200E0DDB02FA0EFC22FA05F280185E
:1055C00041F1000103FA0EF2801843FA05F3594144
:1055D0000EE0A5F120050EF1200E012A03FA0EFCC3
:1055E00028BF4CF0020C43FA05F3C01851EBE371ED
:1055F00001F0004507D54FF0000EDCF1000C7EEB0A
:1056000000006EEB0101B1F5801F1BD3B1F5001F47
:105610000CD349085FEA30004FEA3C0C04F1010466
:105620004FEA445212F5800F80F09A80BCF1004F8F
:1056300008BF5FEA500C50F1000041EB045141EA11
:10564000050130BD5FEA4C0C404141EB010111F412
:10565000801FA4F10104E9D191F0000F04BF0146BD
:105660000020B1FA81F308BF2033A3F10B03B3F19B
:1056700020020CDA0C3208DD02F1140CC2F10C022B
:1056800001FA0CF021FA02F10CE002F11402D8BF89
:10569000C2F1200C01FA02F120FA0CFCDCBF41EA55
:1056A0000C019040E41AA2BF01EB0451294330BD24
:1056B0006FEA04041F3C1CDA0C340EDC04F1140401
:1056C000C4F1200220FA04F001FA02F340EA0300D8
:1056D00021FA04F345EA030130BDC4F10C04C4F11E
:1056E000200220FA02F001FA04F340EA03002946FE
:1056F00030BD21FA04F0294630BD94F0000F83F448
:10570000801306BF81F480110134013D4EE77FEA2A
:10571000645C18BF7FEA655C29D094EA050F08BF76
:1057200090EA020F05D054EA000C04BF1946104657
:1057300030BD91EA030F1EBF0021002030BD5FEA9B
:10574000545C05D14000494128BF41F0004130BDC3
:1057500014F580043CBF01F5801130BD01F0004517
:1057600045F0FE4141F470014FF0000030BD7FEA8A
:10577000645C1ABF194610467FEA655C1CBF0B4685
:10578000024650EA013406BF52EA033591EA030F9C
:1057900041F4002130BD00BF90F0000F04BF002194
:1057A000704730B54FF4806404F132044FF00005C7
:1057B0004FF0000150E700BF90F0000F04BF002140
:1057C000704730B54FF4806404F1320410F00045A6
:1057D00048BF40424FF000013EE700BF42004FEAA1
:1057E000E2014FEA31014FEA02701FBF12F07F431E
:1057F00093F07F4F81F06051704792F0000F14BF1B
:1058000093F07F4F704730B54FF4607401F000455E
:1058100021F0004120E700BF50EA010208BF7047B5
:1058200030B54FF000050AE050EA010208BF7047AA
:1058300030B511F0004502D5404261EB41014FF413
:10584000806404F132045FEA915C3FF4DCAE4FF017
:1058500003025FEADC0C18BF03325FEADC0C18BFFE
:10586000033202EBDC02C2F1200300FA03FC20FA4F
:1058700002F001FA03FE40EA0E0021FA02F114449C
:10588000C1E600BF70B54FF0FF0C4CF4E06C1CEAB1
:1058900011541DBF1CEA135594EA0C0F95EA0C0F26
:1058A00000F0DEF82C4481EA030621EA4C5123EA99
:1058B0004C5350EA013518BF52EA033541F48011C8
:1058C00043F4801338D0A0FB02CE4FF00005E1FB7B
:1058D00002E506F00042E0FB03E54FF00006E1FBC5
:1058E00003569CF0000F18BF4EF0010EA4F1FF0408
:1058F000B6F5007F64F5407404D25FEA4E0E6D4148
:1059000046EB060642EAC62141EA55514FEAC52058
:1059100040EA5E504FEACE2EB4F1FD0C88BFBCF5D4
:10592000E06F1ED8BEF1004F08BF5FEA500E50F185
:10593000000041EB045170BD06F0004646EA01014B
:1059400040EA020081EA0301B4EB5C04C2BFD4EB7D
:105950000C0541EA045170BD41F480114FF0000E76
:10596000013C00F3AB8014F1360FDEBF002001F0E4
:10597000004170BDC4F10004203C35DA0C341BDC5E
:1059800004F11404C4F1200500FA05F320FA04F030
:1059900001FA05F240EA020001F0004221F0004164
:1059A00010EBD37021FA04F642EB06015EEA430ED7
:1059B00008BF20EAD37070BDC4F10C04C4F1200507
:1059C00000FA04F320FA05F001FA04F240EA0200BA
:1059D00001F0004110EBD37041F100015EEA430E8B
:1059E00008BF20EAD37070BDC4F1200500FA05F2AB
:1059F0004EEA020E20FA04F301FA05F243EA02032A
:105A000021FA04F001F0004121FA04F220EA020038
:105A100000EBD3705EEA430E08BF20EAD37070BD7E
:105A200094F0000F0FD101F00046400041EB01015E
:105A300011F4801F08BF013CF7D041EA060195F040
:105A4000000F18BF704703F00046520043EB0303FA
:105A500013F4801F08BF013DF7D043EA06037047E7
:105A600094EA0C0F0CEA135518BF95EA0C0F0CD0F2
:105A700050EA410618BF52EA4306D1D181EA030138
:105A800001F000414FF0000070BD50EA410606BF32
:105A90001046194652EA430619D094EA0C0F02D177
:105AA00050EA013613D195EA0C0F05D152EA0336BC
:105AB0001CBF104619460AD181EA030101F00041DA
:105AC00041F0FE4141F470014FF0000070BD41F023
:105AD000FE4141F4780170BD70B54FF0FF0C4CF4FD
